:020000040000fa
:080000000002040000000000f2
:020000040000fa
:040008008a03000067
:020000040000fa
:04000c008a03000063
:020000040000fa
:040010008a0300005f
:020000040000fa
:040014008a0300005b
:020000040000fa
:040018008a03000057
:020000040000fa
:04001c008a03000053
:020000040000fa
:040020008a0300004f
:020000040000fa
:040024008a0300004b
:020000040000fa
:040028008a03000047
:020000040000fa
:04002c008a03000043
:020000040000fa
:040030008a0300003f
:020000040000fa
:040034005e03000067
:020000040000fa
:040038008a03000037
:020000040000fa
:04003c008a03000033
:020000040000fa
:040040008a0300002f
:020000040000fa
:040044008a0300002b
:020000040000fa
:040048008a03000027
:020000040000fa
:04004c008a03000023
:020000040000fa
:040050008a0300001f
:020000040000fa
:04005400c8020000de
:020000040000fa
:040058008a03000017
:020000040000fa
:04005c008a03000013
:020000040000fa
:040060008a0300000f
:020000040000fa
:040064008a0300000b
:020000040000fa
:040068008a03000007
:020000040000fa
:04006c008a03000003
:020000040000fa
:040070008a030000ff
:020000040000fa
:040074008a030000fb
:020000040000fa
:040078008a030000f7
:020000040000fa
:04007c008a030000f3
:020000040000fa
:040080008a030000ef
:020000040000fa
:040084008a030000eb
:020000040000fa
:040088008a030000e7
:020000040000fa
:04008c008a030000e3
:020000040000fa
:040090008a030000df
:020000040000fa
:040094008a030000db
:020000040000fa
:040098008a030000d7
:020000040000fa
:04009c008a030000d3
:020000040000fa
:0400a0008a030000cf
:020000040000fa
:0400a4008a030000cb
:020000040000fa
:0400a8008a030000c7
:020000040000fa
:0400ac008a030000c3
:020000040000fa
:0400b0008a030000bf
:020000040000fa
:0400b4008a030000bb
:020000040000fa
:0400b8008a030000b7
:020000040000fa
:0400bc008a030000b3
:020000040000fa
:0400c0008a030000af
:020000040000fa
:0400c4008a030000ab
:020000040000fa
:0400c8008a030000a7
:020000040000fa
:0400cc008a030000a3
:020000040000fa
:0400d0008a0300009f
:020000040000fa
:0400d4008a0300009b
:020000040000fa
:0400d8008a03000097
:020000040000fa
:0400dc008a03000093
:020000040000fa
:0400e0008a0300008f
:020000040000fa
:0400e4008a0300008b
:020000040000fa
:0400e8008a03000087
:020000040000fa
:0400ec008a03000083
:020000040000fa
:0400f0008a0300007f
:020000040000fa
:0400f4008a0300007b
:020000040000fa
:0400f8008a03000077
:020000040000fa
:0400fc008a03000073
:020000040000fa
:040100008a0300006e
:020000040000fa
:040104008a0300006a
:020000040000fa
:040108008a03000066
:020000040000fa
:04010c008a03000062
:020000040000fa
:040110008a0300005e
:020000040000fa
:040114008a0300005a
:020000040000fa
:040118008a03000056
:020000040000fa
:04011c008a03000052
:020000040000fa
:040120008a0300004e
:020000040000fa
:040124008a0300004a
:020000040000fa
:040128008a03000046
:020000040000fa
:04012c008a03000042
:020000040000fa
:040130008a0300003e
:020000040000fa
:040134008a0300003a
:020000040000fa
:040138008a03000036
:020000040000fa
:04013c008a03000032
:020000040000fa
:040140008a0300002e
:020000040000fa
:040144008a0300002a
:020000040000fa
:040148008a03000026
:020000040000fa
:04014c008a03000022
:020000040000fa
:040150008a0300001e
:020000040000fa
:040154008a0300001a
:020000040000fa
:040158008a03000016
:020000040000fa
:04015c008a03000012
:020000040000fa
:040160008a0300000e
:020000040000fa
:040164008a0300000a
:020000040000fa
:040168008a03000006
:020000040000fa
:04016c008a03000002
:020000040000fa
:040170008a030000fe
:020000040000fa
:040174008a030000fa
:020000040000fa
:040178008a030000f6
:020000040000fa
:04017c008a030000f2
:020000040000fa
:040180008a030000ee
:020000040000fa
:040184008a030000ea
:020000040000fa
:040188008a030000e6
:020000040000fa
:04018c008a030000e2
:020000040000fa
:040190008a030000de
:020000040000fa
:040194008a030000da
:020000040000fa
:040198008a030000d6
:020000040000fa
:04019c008a030000d2
:020000040000fa
:0401a0008a030000ce
:020000040000fa
:0401a4008a030000ca
:020000040000fa
:0401a8008a030000c6
:020000040000fa
:0401ac008a030000c2
:020000040000fa
:0401b0008a030000be
:020000040000fa
:0401b4008a030000ba
:020000040000fa
:0401b8008a030000b6
:020000040000fa
:0401bc008a030000b2
:020000040000fa
:0401c0008a030000ae
:020000040000fa
:0401c4008a030000aa
:020000040000fa
:0401c8008a030000a6
:020000040000fa
:0401cc008a030000a2
:020000040000fa
:0401d0008a0300009e
:020000040000fa
:0401d4008a0300009a
:020000040000fa
:0401d8008a03000096
:020000040000fa
:0401dc008a03000092
:020000040000fa
:0401e0008a0300008e
:020000040000fa
:0401e4008a0300008a
:020000040000fa
:0401e8008a03000086
:020000040000fa
:0401ec008a03000082
:020000040000fa
:0401f0008a0300007e
:020000040000fa
:0401f4008a0300007a
:020000040000fa
:0401f8008a03000076
:020000040000fa
:0401fc008a03000072
:020000040000fa
:040208008a03000065
:020000040000fa
:04020c008a03000061
:020000040000fa
:040210008a0300005d
:020000040000fa
:040214008a03000059
:020000040000fa
:040218008a03000055
:020000040000fa
:04021c008a03000051
:020000040000fa
:040220008a0300004d
:020000040000fa
:040224008a03000049
:020000040000fa
:040228008a03000045
:020000040000fa
:04022c008a03000041
:020000040000fa
:040230008a0300003d
:020000040000fa
:040234008a03000039
:020000040000fa
:040238008a03000035
:020000040000fa
:04023c008a03000031
:020000040000fa
:040240008a0300002d
:020000040000fa
:040244008a03000029
:020000040000fa
:040248008a03000025
:020000040000fa
:04024c008a03000021
:020000040000fa
:040250008a0300001d
:020000040000fa
:040254008a03000019
:020000040000fa
:040258008a03000015
:020000040000fa
:04025c008a03000011
:020000040000fa
:040260008a0300000d
:020000040000fa
:040264008a03000009
:020000040000fa
:040268008a03000005
:020000040000fa
:04026c008a03000001
:020000040000fa
:040270008a030000fd
:020000040000fa
:040274008a030000f9
:020000040000fa
:040278008a030000f5
:020000040000fa
:04027c008a030000f1
:020000040000fa
:040280008a030000ed
:020000040000fa
:040284008a030000e9
:020000040000fa
:040288008a030000e5
:020000040000fa
:04028c008a030000e1
:020000040000fa
:040290008a030000dd
:020000040000fa
:040294008a030000d9
:020000040000fa
:040298008a030000d5
:020000040000fa
:04029c008a030000d1
:020000040000fa
:0402a0008a030000cd
:020000040000fa
:0402a4008a030000c9
:020000040000fa
:0402a8008a030000c5
:020000040000fa
:0402ac008a030000c1
:020000040000fa
:0402b0008a030000bd
:020000040000fa
:0402b4008a030000b9
:020000040000fa
:0402b8008a030000b5
:020000040000fa
:0402bc008a030000b1
:020000040000fa
:0402c0008a030000ad
:020000040000fa
:0402c4008a030000a9
:020000040000fa
:0402c8008a030000a5
:020000040000fa
:0402cc008a030000a1
:020000040000fa
:0402d0008a0300009d
:020000040000fa
:0402d4008a03000099
:020000040000fa
:0402d8008a03000095
:020000040000fa
:0402dc008a03000091
:020000040000fa
:0402e0008a0300008d
:020000040000fa
:0402e4008a03000089
:020000040000fa
:0402e8008a03000085
:020000040000fa
:0402ec008a03000081
:020000040000fa
:0402f0008a0300007d
:020000040000fa
:0402f4008a03000079
:020000040000fa
:0402f8008a03000075
:020000040000fa
:0402fc008a03000071
:020000040000fa
:040300008a0300006c
:020000040000fa
:040304008a03000068
:020000040000fa
:040308008a03000064
:020000040000fa
:04030c008a03000060
:020000040000fa
:040310008a0300005c
:020000040000fa
:040314008a03000058
:020000040000fa
:040318008a03000054
:020000040000fa
:04031c008a03000050
:020000040000fa
:040320008a0300004c
:020000040000fa
:040324008a03000048
:020000040000fa
:040328008a03000044
:020000040000fa
:04032c008a03000040
:020000040000fa
:040330008a0300003c
:020000040000fa
:040334008a03000038
:020000040000fa
:040338008a03000034
:020000040000fa
:04033c008a03000030
:020000040000fa
:040340008a0300002c
:020000040000fa
:040344008a03000028
:020000040000fa
:040348008a03000024
:020000040000fa
:04034c008a03000020
:020000040000fa
:040350008a0300001c
:020000040000fa
:040354008a03000018
:020000040000fa
:040358008a03000014
:020000040000fa
:04035c008a03000010
:020000040000fa
:040360008a0300000c
:020000040000fa
:040364008a03000008
:020000040000fa
:040368008a03000004
:020000040000fa
:04036c008a03000000
:020000040000fa
:040370008a030000fc
:020000040000fa
:040374008a030000f8
:020000040000fa
:040378008a030000f4
:020000040000fa
:04037c008a030000f0
:020000040000fa
:040380008a030000ec
:020000040000fa
:040384008a030000e8
:020000040000fa
:040388008a030000e4
:020000040000fa
:04038c008a030000e0
:020000040000fa
:040390008a030000dc
:020000040000fa
:040394008a030000d8
:020000040000fa
:040398008a030000d4
:020000040000fa
:04039c008a030000d0
:020000040000fa
:0403a0008a030000cc
:020000040000fa
:0403a4008a030000c8
:020000040000fa
:0403a8008a030000c4
:020000040000fa
:0403ac008a030000c0
:020000040000fa
:0403b0008a030000bc
:020000040000fa
:0403b4008a030000b8
:020000040000fa
:0403b8008a030000b4
:020000040000fa
:0403bc008a030000b0
:020000040000fa
:0403c0008a030000ac
:020000040000fa
:0403c4008a030000a8
:020000040000fa
:0403c8008a030000a4
:020000040000fa
:0403cc008a030000a0
:020000040000fa
:0403d0008a0300009c
:020000040000fa
:0403d4008a03000098
:020000040000fa
:0403d8008a03000094
:020000040000fa
:0403dc008a03000090
:020000040000fa
:0403e0008a0300008c
:020000040000fa
:0403e4008a03000088
:020000040000fa
:0403e8008a03000084
:020000040000fa
:0403ec008a03000080
:020000040000fa
:0403f0008a0300007c
:020000040000fa
:0403f4008a03000078
:020000040000fa
:0403f8008a03000074
:020000040000fa
:0403fc008a03000070
:020000040000fa
:100400006fe020000ebf22000e01880000000000f7
:10041000000020000000e000020032000001200087
:100420002002880014000700d90007000000e00047
:1004300003003a0060dd20000100200002003700c8
:100440000000200001002000810f70000100320038
:1004500014000700000020000000e000020032004d
:100460000000020000000000ca03020000000000bb
:100470000040da000000fe004440a9000000200017
:100480000000e0000300320000002000a00188000e
:100490004440a800000006008a1f78008b1f7800e7
:1004a0000000060091018800800478000000eb0045
:1004b0001a003700e284440032a0b4009905ba0063
:1004c000e284440032a0b4009906ba00e2844400f9
:1004d00032a0b4000006eb00476fde00fd07b2005b
:1004e000636ce10003003a00ebff07000000eb0043
:1004f0000a003700606ce10004003a00005deb0088
:100500008b05e900fdff3e00040037006168e10053
:10051000010032000086eb000b00070019c7ba008b
:100520001905ba000e04e00003003a000a00e000da
:10053000e0ff3a0000000600fe07b2009e018800be
:100540008a047800f5ff3700395dba008b05e900b1
:100550000c003200295dba008b05e900080032006a
:100560000c00e00003003a00e284440032a0b40032
:10057000f5ff370019ddba008b05e900faff3a00f4
:100580008904e800e184440032a0b40000000600c1
:100590003600f800809fbe00829fbe00849fbe0090
:1005a000869fbe00889fbe003400f8000000200037
:1005b000a00188000000fa0005e1a9000021ef0079
:1005c0000060fe0010118000610060000000e0008b
:1005d0002f00320005e1a80029003700101180002b
:1005e000680060000000e0000d003a00101180007b
:1005f000640060000000e00009003a00e88020008c
:10060000184478008884fb0051000700804078007f
:100610009094200001f07c000840e8000ee8b7004c
:1006200010118000620060000000e0000400320051
:10063000410007000c68ef0005e1a9003202070045
:1006400010118000640060000000e000040032002f
:10065000390007000c68ef0005e1a9002a02070035
:1006600010118000680060000000e000040032000b
:10067000310007000c68ef0005e1a9002202070025
:1006800010118000610060000000e000d3ff3a001c
:100690008560a90005e1a8000080fa003400f90097
:1006a0004f04be004f03be004f02be004f01be000c
:1006b0004f00be003600f900004006003600f8008a
:1006c000809fbe00829fbe00849fbe00869fbe00aa
:1006d0003400f80000002000a00188000000fa00ab
:1006e00005e1a9000060fe00270307000021ef00dc
:1006f0008460a9000080fa003400f9004f03be00b6
:100700004f02be004f01be004f00be003600f90090
:10071000004006000040da000000fe00200f8000cc
:1007200000000600001020002202b6000000e900d0
:100730004f00de000000060021e2a9009560a9003c
:100740009580a9008560a9008580a90000000600a9
:100750000011800066006000e60f500002003a00c1
:10076000301180000000060030118000f00fb20050
:100770000000060001118000e6806000e68f500056
:1007800001003200f00fb2002011880000000600c6
:040790000000050060
:020000040000fa
:100794000000fa00c6010700e842a800e862a800c9
:1007a400d8e2a900d7010700020207000d020700e2
:1007b400e421ef00f03f2000300f8800e1a1a80001
:1007c400010f80000070200001007000000f8800fd
:1007d400e041a900e0e1a800d822a900dc22a90098
:1007e400d842a800d862a900dc62a900e002a900ee
:1007f400e022a900e042a900e062a900e082a90089
:10080400e0a2a900e0c2a900e0e2a900f0c2a900a8
:10081400f0e2a900e402a800e422a800e442a8004f
:10082400e462a800e482a800e4a2a800e4c2a8004c
:10083400e4e2a800f4c2a800f4e2a800c802a800f8
:10084400c822a800c842a800c862a800c882a8009c
:10085400c8a2a800c902a800c922a800c942a800c9
:10086400c962a800c982a8000080eb0010188800a3
:1008740001e3a90001a3a9000103a90000e3a90061
:100884000183a900001880007000b30000188800dc
:1008940010e3a9008118800000fe2f000080600092
:1008a4000000a0008018880003a3a90001e3a800a9
:1008b40040a7a8000060fe0001003700000000000f
:1008c4000dc8bf00e14f5000fcff3a000d68ef0077
:1008d40010a3a800000000003118800000042000cc
:1008e400008060000000e000fbff320006c3a900a6
:1008f40010c3a900d01a80004200de001040880016
:10090400a0a82000104078006140600061406000b1
:10091400614060000080fb006100600021178000de
:100924000100a1000100700020178800a0a8200089
:10093400104078000080fb000000d10000407800e7
:100944006140600061406000614060000080fb0025
:100954006100600000004000211780000110a10028
:100964000100700020178800a0a820001040780023
:100974000080fb004200de0000407800614060001f
:1009840061406000614060000080fb006100600025
:100994004200dd00211780000120a1000100700049
:1009a40020178800a0a82000104078000080fb00d9
:1009b4004300de0000407800614060006140600058
:1009c400614060000080fb00610060004300dd00c6
:1009d400211780000130a100010070002017880059
:1009e400a0a82000104078000080fb004400de0036
:1009f4000040780061406000614060006140600038
:100a04000080fb00610060004400dd0021178000cd
:100a14000140a1000100700020178800a0a8200058
:100a2400104078000080fb004500de0000407800a4
:100a34006140600061406000614060000080fb0034
:100a4400610060004500dd00211780000150a10015
:100a54000100700020178800a0a820001040780032
:100a64000080fb004600de0000407800614060002a
:100a740061406000614060000080fb006100600034
:100a84004600dd00211780000160a1000100700014
:100a940020178800a0a82000104078000080fb00e8
:100aa4004700de0000407800614060000080fb00e9
:100ab400610060004700dd00211780000170a10083
:100ac4000100700020178800b0a8200010407800b2
:100ad4006140600061406000614060000080fb0094
:100ae400610060004600dd00a11780000160a100e4
:100af40001007000a0178800b0a820001040780002
:100b04000080fb000000d1000040780061406000dc
:100b140061406000614060000080fb006100600093
:100b24004700dd00a11780000170a10001007000e2
:100b3400a017880050168000610060000000e000eb
:100b44000400320009c8bf000004a00009e8b7008f
:100b54000300370009c8bf000004a10009e8b7007a
:100b64000bc8bf000000fb00e10f5000570032002b
:100b7400e20f50009c0032000000e0009d003a00ab
:100b840050168000620060000000e000090032009e
:100b940009c8bf000014a00009e8b70009c8bf00d5
:100ba4000064a10009e8b70009c8bf000074a100ef
:100bb40009e8b70051168000001020000080600092
:100bc4000000e0000900320009c8bf000014a100c1
:100bd40009e8b70009c8bf000064a00009e8b7002d
:100be40009c8bf000074a10009e8b70051168000cd
:100bf40000202000008060000000e00009003200b6
:100c040009c8bf000014a10009e8b70009c8bf0063
:100c14000064a10009e8b70009c8bf000074a0007f
:100c240009e8b70050168000640060000000e0008e
:100c34000900320009c8bf000024a00009e8b70079
:100c440009c8bf000054a10009e8b7000ac8bf00e2
:100c54000004a1000ae8b700511680000002200039
:100c6400008060000000e0000900320009c8bf00f5
:100c74000024a10009e8b70009c8bf000054a0007f
:100c840009e8b7000ac8bf000004a1000ae8b700d9
:100c94005116800000402000008060000000e00049
:100ca4005300320009c8bf000024a10009e8b700be
:100cb40009c8bf000054a10009e8b7000ac8bf0072
:100cc4000004a0000ae8b7004a003700501680006c
:100cd400620060000000e0000400320009c8bf00a8
:100ce4000014a00009e8b7000300370009c8bf00da
:100cf4000014a10009e8b70051168000001020007c
:100d0400008060000000e0000400320009c8bf0059
:100d14000064a00009e8b7000300370009c8bf0059
:100d24000064a10009e8b7005116800000202000eb
:100d3400008060000000e0000400320009c8bf0029
:100d44000074a00009e8b7000300370009c8bf0019
:100d54000074a10009e8b700501680006400600028
:100d64000000e0000400320009c8bf000024a00015
:100d740009e8b7000300370009c8bf000024a10038
:100d840009e8b700511680000002200000806000ce
:100d94000000e0000400320009c8bf000054a000b5
:100da40009e8b7000300370009c8bf000054a100d8
:100db40009e8b70051168000004020000080600060
:100dc4000000e000040032000ac8bf000004a000d4
:100dd4000ae8b700070037000ac8bf000004a100f2
:100de4000ae8b700030037000000000001003700e4
:100df4000000000050168000680060000000e00061
:100e04000400320009c8bf000034a00009e8b7009c
:100e14000300370009c8bf000034a10009e8b70087
:100e240050168000700060000000e00004003200f2
:100e340009c8bf000044a00009e8b7000300370058
:100e440009c8bf000044a10009e8b700511680009a
:100e540000802000008060000000e00004003200f8
:100e64000ac8bf000014a0000ae8b7000300370056
:100e74000ac8bf000014a1000ae8b7005116800098
:100e840000002100008060000000e0000400320047
:100e94000ac8bf000024a0000ae8b70088fe370093
:100ea4000ac8bf000024a1000ae8b70084fe370086
:100eb4000000fa00213a8000f08f2f0000806000cb
:100ec400203a8800213a8000f0ff2800008060006a
:100ed400203a880060022000303a8800213a8000dd
:100ee40000fe2f0000806000203a8800213a800034
:100ef400f0f32f0000806000203a88000080fa00a0
:100f0400000006000000fa0021a2a90020c2a900e6
:100f14000111800090ff2f00008060000011880004
:100f24002002a9002062a80040002000401188008f
:100f340011118000f0f32f00008060001011880070
:100f440022e2a9008560a9009560a80021e2a8001a
:100f54002342a8000080fa00000006000000fa0006
:100f640031a2a90030c2a9008111800090ff2f0096
:100f740000806000801188003002a9003062a8005f
:100f840040002000c011880091118000f0f32f0070
:100f9400008060009011880032e2a90087c0a90097
:100fa40097c0a80031e2a8003342a8000080fa00ec
:100fb400000006000000fa00a00f200010088800be
:100fc40021088000f0fc2f000080600020088800c9
:100fd4000421a9009460a8008460a9000080fa009c
:100fe400000006000400fa00e000200001002000d8
:100ff400c0408800d140880080812000f05f8800d4
:10100400e000200001002000e0408800f14088005a
:10101400c0812000306188002003200001002000ee
:10102400004188001141880000822000706288001d
:101034001000200001002000404188005141880038
:1010440080822000b063880090002000010020000e
:10105400204188003141880040822000f0648800eb
:1010640020002000010020006041880071418800b8
:10107400c0822000306688000000eb00000f78007a
:101084001b0037009e007800638040000000400091
:10109400000178009e007800800220000088b900da
:1010a40080007800a0b220000080400080407800da
:1010b40090ae2000017079001e007800000040000e
:1010c400670140009e007800800220000088b9007b
:1010d40080007800a0b22000008040004880de003c
:1010e4008040780090ae2000017079001e0fe80067
:1010f4001e007800ea0f5000e2ff340020ce2000ea
:101104008040780090ae20000148780020ce200076
:101114004880de0080407800a0ae200001487800be
:10112400e0ce200080407800b0ae20000148780076
:10113400e0ce20004880de0080407800c0ae200071
:1011440001487800a0cf200080407800d0ae200075
:1011540001487800a0cf20004880de00804078005d
:10116400e0ae20000148780090ae200000407800f6
:1011740015e8b70090ae20004880de0000407800fb
:1011840014e8b7000000eb00100798001d003700ba
:101194001e00900063004000000040000001780041
:1011a4009e009000800220000088b9008000780032
:1011b400a0b22000008040008040780090aa200067
:1011c400017079001e00900000004000670140009b
:1011d4009e009000800220000088b9008000780002
:1011e400a0b22000008040004880de0080407800eb
:1011f40090aa2000017079001e0090000000e80011
:10120400100798001e009000e40f5000e0ff340027
:1012140020ce20008040780090aa20000148780069
:1012240020ce20004880de0080407800a0aa200064
:1012340001487800e0ce200080407800b0aa200069
:1012440001487800e0ce20004880de00804078002d
:10125400c0aa200001487800a0cf20008040780078
:10126400d0aa200001487800a0cf20004880de00ea
:1012740080407800e0aa20000148780090aa20006d
:101284000040780017e8b70090aa20004880de00ec
:101294000040780016e8b7000080fa00000006005d
:1012a4000600fa00881f78004047980051479800cc
:1012b4005e4090000004e0001a0032004e409000ae
:1012c4000084fb00ce409000908420003803070087
:1012d4009184200080707c000000eb00000f7800f7
:1012e4000a003700908420001e004000104078005f
:1012f4000080fb001efd07000000000008fd070041
:101304000004e000fdff3a001e0fe8004e4090008c
:101314000080fb000000e8009e0f5000f1ff3c003d
:10132400150037000000eb00100798000d0037008f
:10133400918420001e00900000804000104078003e
:101344000080fb000afd070000000000f4fc070019
:101354000004e000fdff3a001e0090000000e800d9
:10136400100798004e4090008080fb001e00900003
:10137400808f5000eeff3c004f0478000080fa009c
:10138400000006000200fa00881f78000040eb000d
:10139400004f78000a0037009e80fb000fc8bf0092
:1013a4000081fb0093942000e341790092a4200083
:1013b40003f178001e4fe8000040e8000fe8b70092
:1013c400e1802000914078000fc8bf0080cf50001a
:1013d400f1ff3a001e80fb000000e90091a4200008
:1013e400614478001e40e9008040780090a4200009
:1013f400ef020700804f5400e8013a0090a4200057
:10140400104078000080fb006101b900b0fb2f00a0
:10141400f1ff2f000200400083804800920b20005f
:1014240003002000820f5000838f5800db013e0030
:1014340000600100580137006f013700d701370001
:10144400d6013700d5013700d4013700d301370066
:1014540022013700d1013700d0013700cf01370016
:10146400ce013700cd013700cc013700cb01370066
:10147400ca013700c9013700c8013700c701370066
:10148400c6013700c5013700c4013700c301370066
:10149400c2013700c1013700c0013700bf01370066
:1014a400be013700bd013700bc013700bb01370066
:1014b400ba013700b9013700b8013700b701370066
:1014c400b6013700b5013700b4013700b301370066
:1014d400b2013700b1013700b0013700af01370066
:1014e400ae013700ad013700ac013700ab01370066
:1014f400aa013700a9013700a8013700a701370066
:10150400a6013700a5013700a4013700a301370065
:10151400a2013700a1013700a00137009f01370065
:101524009e0137009d0137009c0137009b01370065
:101534009a01370099013700980137009701370065
:101544009601370095013700940137009301370065
:101554009201370091013700900137008f01370065
:101564008e0137008d0137008c0137008b01370065
:101574008a01370089013700880137008701370065
:101584008601370085013700840137008301370065
:101594008201370081013700800137007f01370065
:1015a4007e0137007d0137007c0137007b01370065
:1015b4007a01370079013700780137007701370065
:1015c4007601370075013700740137007301370065
:1015d4007201370071013700700137006f01370065
:1015e4006e0137006d0137006c0137006b01370065
:1015f4006a01370069013700680137006701370065
:10160400660137006501370064013700990037002f
:101614005e00370021013700600137005f013700a9
:101624005e013700520037005c0137005b01370070
:101634005a0137005901370058013700c1003700fb
:101644005601370055013700540137005301370064
:101654005201370051013700500137004f01370064
:101664005a00370060003700660037006c0037000e
:101674004a0137004901370048013700b8003700f4
:101684004601370045013700440137004301370064
:101694004201370041013700400137001f00370085
:1016a4003e0137002b0037003c0137003b01370077
:1016b4003a01370039013700600037009a003700db
:1016c4003601370035013700340137001a0037007e
:1016d400aa00370031013700300137002f013700ed
:1016e4002e0137002d0137002c0137002b01370064
:1016f4002a01370029013700280137002701370064
:101704002601370025013700240137002301370063
:101714002201370021013700d900370090842000ce
:10172400a1c5b3000148780011c0b30010c0b300d4
:10173400dbfe070019013700908420008040eb0095
:10174400014878008040eb0010c0b300d4fe0700cd
:1017540012013700908420008040eb00014878009b
:101764008040eb0010c0b300cdfe07000b01370032
:10177400908420008040eb000148780011c0b30041
:1017840010c0b300c6fe0700040137009084200097
:1017940061c9b30001487800a08420008040eb00b8
:1017a40001487800b08420008040eb0001487800b4
:1017b400c084200031c1b3000148780011c0b300d7
:1017c40040c0b300b6fe0700f40037009084200048
:1017d40041c5b3000148780011c0b30010c0b30084
:1017e400affe0700ed0037009084200031c5b30040
:1017f4000148780011c0b30010c0b300a8fe070070
:10180400e60037009084200081c4b30001487800ca
:1018140011c0b30010c0b300a1fe0700df00370001
:101824009084200071c5b3000148780011c0b30052
:1018340010c0b3009afe0700d8003700a0a420000f
:10184400104078000be8b700908420008040eb0043
:10185400014878008040eb0010c0b30090fe070000
:101864000bc8bf00e14f5000cb0034000b68ef0001
:10187400ca0037009084200071c0b300014878008a
:10188400a084200071c0b300014878007181200059
:1018940091407800b08420000148780061812000e4
:1018a40091407800c08420000148780051812000d4
:1018b40091407800d08420000148780041812000c4
:1018c40091407800e08420000148780011c0b30002
:1018d40060c0b30072fe0700b0003700b0a420005f
:1018e400104078000080fb00c800dd00a0a42000a8
:1018f400104078000080fb000100700090408800d8
:1019040090408000804088008040800090407800b3
:10191400908420000148780011c0b30010c0b300c7
:101924005ffe07009d003700908420008040eb009c
:10193400014878008040eb0010c0b30058fe070057
:1019440096003700908420008040eb000148780026
:1019540011c0b30010c0b30051fe07008f00370060
:10196400908420008040eb000148780011c0b3004f
:1019740010c0b3004afe070088003700908420009e
:101984008040eb00014878008040eb0010c0b300b9
:1019940043fe070081003700b0a420001040780007
:1019a4000080fb00c800dd00a0a4200010407800e7
:1019b4000080fb000100700090408800904080008f
:1019c400804088008040800090407800908420000f
:1019d40001487800804080000000e80090407800d2
:1019e400a08420000148780011c0b30020c0b300d7
:1019f4002bfe070069003700b0a4200010407800d7
:101a04000080fb00c800dd00a0a420001040780086
:101a14000080fb000100700090408800904080002e
:101a240080408800804080009040780090842000ae
:101a340001487800804080000000e8009040780071
:101a4400a084200001487800804080000000e80065
:101a540090407800b08420000148780080408000e5
:101a64000000e80090407800c0842000014878001d
:101a740011c0b30040c0b30009fe0700470037009f
:101a840090842000a1c5b3000148780011c0b300c0
:101a940010c0b30002fe07004000370090a42000ed
:101aa4009040780090a8200001487800a0a420006d
:101ab40090407800a0a8200001487800b0a420003d
:101ac40090407800b0a8200001487800c0a420000d
:101ad40090407800c0a8200001487800d0a42000dd
:101ae40090407800d0a8200001487800e0a42000ad
:101af40090407800e0a8200001487800f0a420007d
:101b040090407800f0a820000148780000a520004b
:101b14009040780000a920000148780010a520001a
:101b24009040780010a9200001487800908420009b
:101b34008040eb00014878009180200091407800bb
:101b4400a084200001487800a18020009140780002
:101b5400b084200001487800effa07004200de005c
:101b640080407800c0842000014878001040800044
:101b740080407800d08420000148780011c0b30070
:101b840070c0b300c6fd070010c0b3000de8b70075
:101b94000000000001003700000000004f0478003e
:081ba4000080fa0000000600b9
:020000040000fa
:101bac00060d00000001000002000000005ebc00f9
:101bbc00e2613f00dd83c2009c7e2000a3fd1f007c
:101bcc00419dc300217ffc00a2401e005f01e30089
:101bdc00bd3e600082dc23007d9fc100421cfe00e4
:101bec00a0e1bf005d038000de3c6200bee00200ad
:101bfc005cdf8100633d7c0022c09e001d43a10080
:101c0c00ff461800faa42700799bc50084da380037
:101c1c0066e5bb005907db0085673900bae40600ae
:101c2c0058194700a5fb780026c49a00653bd900db
:101c3c0087045a00b8e6a700f91b4500c6987a003d
:101c4c0024f8a600441a9900c7257b003a64860044
:101c5c00d85b0500e7b98c00d2306e00edb35100b3
:101c6c000f4e1000f2ac2f007193cd00114fad0050
:101c7c00f3702e00cc92d3008d6f3100b2ec0e00bd
:101c8c0050aff100134dce0090722c006d33d1008b
:101c9c008f0c5200b0ee32006c8ed000530def0062
:101cac00b1f0ae004c129100cf2d7300ca947600a7
:101cbc0028abf5001749080056b4ea006937d5007f
:101ccc008b570900ebb53600688ad40095cb2900f8
:101cdc0077f4aa004816e900b7550b0088d63400f3
:101cec006a2b750097c94a0014f6a800742ac8001c
:101cfc0096154b00a9f7b600e80a5400d7896b007b
:101d0c00350000002a0b0000dc010000020000007e
:101d1c00a00a01008000000000000000000000008c
:101d2c0000006200697400004c4544000000000093
:101d3c000000000000000000000000000000000097
:101d4c000000000000a00b000100000000000000db
:101d5c00000000000000000062697400004b4500a8
:101d6c00590000000000000000000000000000000e
:101d7c0000000000000000000000a00005000000b2
:101d8c00000000000000000000000000006e750064
:101d9c006c6c00006e756c006c00780030300000cc
:101dac000000000000000000000000000000000027
:101dbc00a008080000000000000000000000000067
:101dcc00000063006f756e00740065006e636f0039
:101ddc00646572002d30000000000000000000005f
:101dec000000000000a00800060000000000000039
:101dfc00000000000000000076616c0075650000ba
:101e0c00706f74006900000000000000000000000a
:101e1c0000000000000000000000a0001002800084
:101e2c00000000000000000000000000004e6f00e9
:101e3c006e650000537752006576690073696f0018
:101e4c006e00000000000000000000000000000018
:101e5c00a010020080000000000000000000000044
:101e6c0000004e006f6e65000048770052657600ea
:101e7c00697369006f6e0000000000000000000034
:101e8c000000000000a01000040000000000000092
:101e9c0000000000000000004e6f6e0065004e0058
:101eac005657610074636800446f670054696d0095
:101ebc00656f7500740000000000a0002004000095
:101ecc00000000000000000000000000004e6f0049
:101edc006e6500004e5655006e6974004e756d00af
:101eec0062657200000000000000000000000000ad
:101efc00a0100400400000000000000000000000e2
:101f0c0000004e006f6e6500004e56004261750079
:101f1c0064526100746500000000000000000000c5
:101f2c000000000000a020000400000000000000e1
:101f3c0000000000000000004e6f6e0065005500b0
:101f4c006e6974004e756d006265720000000000d1
:101f5c0000000000000000000000b00000000000c5
:101f6c0068773000200000000000b0000101000084
:101f7c0073773000200000000000b0000201000068
:101f8c0073773100200000000000000030080000d2
:101f9c00fa02000000000000000800003000000001
:081fac0000000000000000002d
:020000040000fa
:101fb4000600fa0010079800414798000040eb0023
:101fc400004f7800090037001e0090001040780090
:101fd4001e4068000080fb0061d02000614f780043
:101fe4001e0090000000e800100798004e4090008a
:101ff4000080fb000000ea004f00de000040780093
:10200400ce4090008140e900414798000004e00080
:10201400edff3a001e4078000080fa000000060040
:020000040000fa
:0200000401f009
:04000000ffff0000fe
:020000040000fa
:0200000401f009
:04000800ffff0000f6
:020000040000fa
:0200000401f009
:04000c007bffff0077
:020000040000fa
:0200000401f009
:04001000bdffff0031
:020000040000fa
:0200000401f009
:0400140074ffff0076
:020000040000fa
:0200000401f009
:04001800f7000000ed
:020000040000fa
:0200000401f009
:04001c00dfffff0003
:020000040000fa
:0200000401f009
:04002000ffff0000de
:00000001FF
